:100000000C942A000C943C000C943C000C943C0092
:100010000C943C000C943C000C943C000C943C0070
:100020000C943C000C943C000C946E010C94AA01BE
:100030000C943C000C943C000C943C000C943C0050
:100040000C943C000C943C000C943C000C943C0040
:100050000C943C0011241FBECFE5D8E0DEBFCDBF1D
:1000600020E0A0E6B0E001C01D92A836B207E1F79B
:100070000E94E8010C9433020C940000843030F5A7
:10008000683020F5442319F0413009F1089521E04A
:1000900030E0A90102C0440F551F6A95E2F7BA018A
:1000A0006095823061F0833071F0813021F08BB344
:1000B00086238BBB089588B3862388BB089585B3B8
:1000C000862385BB089582B3862382BB089521E0F1
:1000D00030E0A90102C0440F551F6A95E2F7823053
:1000E00051F0833059F0813019F08BB3842BE1CF7C
:1000F00088B3842BE2CF85B3842BE3CF82B3842BE8
:10010000E4CF843030F5683020F5442319F04130D5
:1001100009F1089521E030E0A90102C0440F551F04
:100120006A95E2F7BA016095823061F0833071F030
:10013000813021F08AB386238ABB089587B3862352
:1001400087BB089584B3862384BB089581B3862337
:1001500081BB089521E030E0A90102C0440F551F82
:100160006A95E2F7823051F0833059F0813019F00E
:100170008AB3842BE1CF87B3842BE2CF84B3842B63
:10018000E3CF81B3842BE4CF823099F060F4811106
:100190000EC089B390E002C0959587956A95E2F705
:1001A000982F917002C0833031F0892F089586B363
:1001B000F1CF83B3EFCF80B3EDCF823051F020F495
:1001C000811105C06BBB0895833029F0089568BB89
:1001D000089565BB089562BB0895662319F06130E8
:1001E00089F00895823051F020F4811105C01ABAC7
:1001F0000895833029F0089517BA089514BA089520
:1002000011BA0895823061F028F4811106C08FEF91
:100210008ABB0895833039F008958FEF87BB089526
:100220008FEF84BB08958FEF81BB0895843038F43D
:10023000823049F0833049F0813019F099B3892F29
:10024000089596B3FCCF93B3FACF90B3F8CF83B7AA
:10025000886083BF83B78F7B83BF89B7826089BF84
:1002600083B7887F83BF83B7826083BF08959093ED
:100270006300809362000895909361008093600012
:10028000089582BF08958CBF0895CF93DF9300D067
:1002900000D0CDB7DEB728EC2CBF9C01A8EEB3E0B0
:1002A0000E94240269837A838B839C8328EC30E04C
:1002B00040E050E00E94020280E090E08217930745
:1002C00039F40F900F900F900F90DF91CF91089518
:1002D00048B748B7426048BF0196F0CF1F920F92CF
:1002E0000FB60F9211242F933F934F935F936F9309
:1002F0007F938F939F93AF93BF93EF93FF938091DF
:100300006600909167009C012F5F3F4F87389341B3
:10031000A9F03093670020936600FF91EF91BF91A1
:10032000AF919F918F917F916F915F914F913F918D
:100330002F910F900FBE0F901F901895109267008D
:1003400010926600E0916000F0916100309729F30F
:100350000995E3CF1F920F920FB60F9211242F939E
:100360003F934F935F936F937F938F939F93AF933D
:10037000BF93EF93FF9380916400909165009C017F
:100380002F5F3F4F82349F40A9F030936500209348
:100390006400FF91EF91BF91AF919F918F917F91F9
:1003A0006F915F914F913F912F910F900FBE0F90E2
:1003B0001F901895109265001092640080EC82BF27
:1003C000E0916200F0916300309719F30995E1CF55
:1003D0000E94270141E060E082E00E94810041E04C
:1003E00060E082E00E943E0088EE93E00E944501BA
:1003F00040E060E082E00E943E0088EE93E00E94D0
:100400004501EDCFA1E21A2EAA1BBB1BFD010DC0B9
:10041000AA1FBB1FEE1FFF1FA217B307E407F507B4
:1004200020F0A21BB30BE40BF50B661F771F881F90
:10043000991F1A9469F760957095809590959B0126
:10044000AC01BD01CF010895A29FB001B39FC001CF
:10045000A39F700D811D1124911DB29F700D811DF0
:0A0460001124911D0895F894FFCFB8
:00000001FF
